{
  "_format": "hh-sol-artifact-1",
  "contractName": "KeyManager",
  "sourceName": "contracts/key-manager.sol",
  "abi": [
    {
      "inputs": [],
      "stateMutability": "nonpayable",
      "type": "constructor"
    },
    {
      "anonymous": false,
      "inputs": [
        {
          "indexed": false,
          "internalType": "bytes32",
          "name": "keyHash",
          "type": "bytes32"
        },
        {
          "indexed": false,
          "internalType": "uint256",
          "name": "activationDate",
          "type": "uint256"
        }
      ],
      "name": "KeyActivated",
      "type": "event"
    },
    {
      "anonymous": false,
      "inputs": [
        {
          "indexed": false,
          "internalType": "bytes32",
          "name": "keyHash",
          "type": "bytes32"
        }
      ],
      "name": "KeyCreated",
      "type": "event"
    },
    {
      "anonymous": false,
      "inputs": [
        {
          "indexed": false,
          "internalType": "bytes32",
          "name": "keyHash",
          "type": "bytes32"
        },
        {
          "indexed": false,
          "internalType": "uint256",
          "name": "expiryDate",
          "type": "uint256"
        }
      ],
      "name": "KeyExpirySet",
      "type": "event"
    },
    {
      "inputs": [
        {
          "internalType": "string",
          "name": "key",
          "type": "string"
        }
      ],
      "name": "activateKey",
      "outputs": [],
      "stateMutability": "nonpayable",
      "type": "function"
    },
    {
      "inputs": [
        {
          "internalType": "string",
          "name": "key",
          "type": "string"
        }
      ],
      "name": "createKey",
      "outputs": [],
      "stateMutability": "nonpayable",
      "type": "function"
    },
    {
      "inputs": [
        {
          "internalType": "string",
          "name": "key",
          "type": "string"
        }
      ],
      "name": "getKeyInfo",
      "outputs": [
        {
          "internalType": "enum KeyManager.Status",
          "name": "",
          "type": "uint8"
        },
        {
          "internalType": "uint256",
          "name": "activationDate",
          "type": "uint256"
        },
        {
          "internalType": "uint256",
          "name": "expiryDate",
          "type": "uint256"
        }
      ],
      "stateMutability": "view",
      "type": "function"
    },
    {
      "inputs": [],
      "name": "owner",
      "outputs": [
        {
          "internalType": "address",
          "name": "",
          "type": "address"
        }
      ],
      "stateMutability": "view",
      "type": "function"
    },
    {
      "inputs": [
        {
          "internalType": "string",
          "name": "key",
          "type": "string"
        },
        {
          "internalType": "uint256",
          "name": "expiryTimestamp",
          "type": "uint256"
        }
      ],
      "name": "setExpiryDate",
      "outputs": [],
      "stateMutability": "nonpayable",
      "type": "function"
    }
  ],
  "bytecode": "0x608060405234801561001057600080fd5b50336000806101000a81548173ffffffffffffffffffffffffffffffffffffffff021916908373ffffffffffffffffffffffffffffffffffffffff160217905550610ea5806100606000396000f3fe608060405234801561001057600080fd5b50600436106100575760003560e01c806311e984c41461005c5780631b774ee91461008e5780631dabf827146100aa5780638da5cb5b146100c6578063a15cdafe146100e4575b600080fd5b6100766004803603810190610071919061091d565b610100565b604051610085939291906109f6565b60405180910390f35b6100a860048036038101906100a3919061091d565b6101be565b005b6100c460048036038101906100bf9190610a59565b610397565b005b6100ce610575565b6040516100db9190610af6565b60405180910390f35b6100fe60048036038101906100f9919061091d565b610599565b005b600080600080846040516020016101179190610b82565b6040516020818303038152906040528051906020012090506000600160008381526020019081526020016000206040518060600160405290816000820160009054906101000a900460ff16600181111561017457610173610966565b5b600181111561018657610185610966565b5b815260200160018201548152602001600282015481525050905080600001518160200151826040015194509450945050509193909250565b60008054906101000a900473ffffffffffffffffffffffffffffffffffffffff1673ffffffffffffffffffffffffffffffffffffffff163373ffffffffffffffffffffffffffffffffffffffff161461024c576040517f08c379a000000000000000000000000000000000000000000000000000000000815260040161024390610bf6565b60405180910390fd5b60008160405160200161025f9190610b82565b6040516020818303038152906040528051906020012090506000600181111561028b5761028a610966565b5b6001600083815260200190815260200160002060000160009054906101000a900460ff1660018111156102c1576102c0610966565b5b14610301576040517f08c379a00000000000000000000000000000000000000000000000000000000081526004016102f890610c88565b60405180910390fd5b600180600083815260200190815260200160002060000160006101000a81548160ff0219169083600181111561033a57610339610966565b5b02179055504260016000838152602001908152602001600020600101819055507f7c963b075ae6d9ecf8049a5082ddf91cfa4ce478e7e9d7e4c3c7e86bbb49af2f814260405161038b929190610cc1565b60405180910390a15050565b60008054906101000a900473ffffffffffffffffffffffffffffffffffffffff1673ffffffffffffffffffffffffffffffffffffffff163373ffffffffffffffffffffffffffffffffffffffff1614610425576040517f08c379a000000000000000000000000000000000000000000000000000000000815260040161041c90610bf6565b60405180910390fd5b6000826040516020016104389190610b82565b6040516020818303038152906040528051906020012090506000600181111561046457610463610966565b5b6001600083815260200190815260200160002060000160009054906101000a900460ff16600181111561049a57610499610966565b5b036104da576040517f08c379a00000000000000000000000000000000000000000000000000000000081526004016104d190610d5c565b60405180910390fd5b42821161051c576040517f08c379a000000000000000000000000000000000000000000000000000000000815260040161051390610dc8565b60405180910390fd5b8160016000838152602001908152602001600020600201819055507f756281ebc324baf6a9a65d6d72147eb660dbdcfda346feb409e5e31116614ba08183604051610568929190610cc1565b60405180910390a1505050565b60008054906101000a900473ffffffffffffffffffffffffffffffffffffffff1681565b60008054906101000a900473ffffffffffffffffffffffffffffffffffffffff1673ffffffffffffffffffffffffffffffffffffffff163373ffffffffffffffffffffffffffffffffffffffff1614610627576040517f08c379a000000000000000000000000000000000000000000000000000000000815260040161061e90610bf6565b60405180910390fd5b60008160405160200161063a9190610b82565b6040516020818303038152906040528051906020012090506000600181111561066657610665610966565b5b6001600083815260200190815260200160002060000160009054906101000a900460ff16600181111561069c5761069b610966565b5b1480156106bf575060006001600083815260200190815260200160002060010154145b6106fe576040517f08c379a00000000000000000000000000000000000000000000000000000000081526004016106f590610e34565b60405180910390fd5b60405180606001604052806000600181111561071d5761071c610966565b5b81526020016000815260200160008152506001600083815260200190815260200160002060008201518160000160006101000a81548160ff0219169083600181111561076c5761076b610966565b5b021790555060208201518160010155604082015181600201559050507f375ceee3c0fd5025e9587edd7555b088a01846cfd204410f33eb940db932321e816040516107b79190610e54565b60405180910390a15050565b6000604051905090565b600080fd5b600080fd5b600080fd5b600080fd5b6000601f19601f8301169050919050565b7f4e487b7100000000000000000000000000000000000000000000000000000000600052604160045260246000fd5b61082a826107e1565b810181811067ffffffffffffffff82111715610849576108486107f2565b5b80604052505050565b600061085c6107c3565b90506108688282610821565b919050565b600067ffffffffffffffff821115610888576108876107f2565b5b610891826107e1565b9050602081019050919050565b82818337600083830152505050565b60006108c06108bb8461086d565b610852565b9050828152602081018484840111156108dc576108db6107dc565b5b6108e784828561089e565b509392505050565b600082601f830112610904576109036107d7565b5b81356109148482602086016108ad565b91505092915050565b600060208284031215610933576109326107cd565b5b600082013567ffffffffffffffff811115610951576109506107d2565b5b61095d848285016108ef565b91505092915050565b7f4e487b7100000000000000000000000000000000000000000000000000000000600052602160045260246000fd5b600281106109a6576109a5610966565b5b50565b60008190506109b782610995565b919050565b60006109c7826109a9565b9050919050565b6109d7816109bc565b82525050565b6000819050919050565b6109f0816109dd565b82525050565b6000606082019050610a0b60008301866109ce565b610a1860208301856109e7565b610a2560408301846109e7565b949350505050565b610a36816109dd565b8114610a4157600080fd5b50565b600081359050610a5381610a2d565b92915050565b60008060408385031215610a7057610a6f6107cd565b5b600083013567ffffffffffffffff811115610a8e57610a8d6107d2565b5b610a9a858286016108ef565b9250506020610aab85828601610a44565b9150509250929050565b600073ffffffffffffffffffffffffffffffffffffffff82169050919050565b6000610ae082610ab5565b9050919050565b610af081610ad5565b82525050565b6000602082019050610b0b6000830184610ae7565b92915050565b600081519050919050565b600081905092915050565b60005b83811015610b45578082015181840152602081019050610b2a565b60008484015250505050565b6000610b5c82610b11565b610b668185610b1c565b9350610b76818560208601610b27565b80840191505092915050565b6000610b8e8284610b51565b915081905092915050565b600082825260208201905092915050565b7f4e6f7420617574686f72697a6564000000000000000000000000000000000000600082015250565b6000610be0600e83610b99565b9150610beb82610baa565b602082019050919050565b60006020820190508181036000830152610c0f81610bd3565b9050919050565b7f4b657920697320616c726561647920616374697665206f7220646f65736e277460008201527f2065786973740000000000000000000000000000000000000000000000000000602082015250565b6000610c72602683610b99565b9150610c7d82610c16565b604082019050919050565b60006020820190508181036000830152610ca181610c65565b9050919050565b6000819050919050565b610cbb81610ca8565b82525050565b6000604082019050610cd66000830185610cb2565b610ce360208301846109e7565b9392505050565b7f4b6579206d757374206265206372656174656420616e6420616374697665206260008201527f65666f72652073657474696e6720657870697279000000000000000000000000602082015250565b6000610d46603483610b99565b9150610d5182610cea565b604082019050919050565b60006020820190508181036000830152610d7581610d39565b9050919050565b7f457870697279206d75737420626520696e207468652066757475726500000000600082015250565b6000610db2601c83610b99565b9150610dbd82610d7c565b602082019050919050565b60006020820190508181036000830152610de181610da5565b9050919050565b7f4b657920616c7265616479206578697374730000000000000000000000000000600082015250565b6000610e1e601283610b99565b9150610e2982610de8565b602082019050919050565b60006020820190508181036000830152610e4d81610e11565b9050919050565b6000602082019050610e696000830184610cb2565b9291505056fea26469706673582212200488558b684716deab7c4d8df468d61fd99569e6c96b23785fcccac16775e7df64736f6c63430008140033",
  "linkReferences": {},
  "deployedLinkReferences": {}
}